{
  "contractName": "SimpleBankToken",
  "abi": [
    {
      "inputs": [],
      "payable": false,
      "stateMutability": "nonpayable",
      "type": "constructor"
    },
    {
      "constant": false,
      "inputs": [],
      "name": "buy",
      "outputs": [
        {
          "name": "",
          "type": "bool"
        }
      ],
      "payable": true,
      "stateMutability": "payable",
      "type": "function"
    },
    {
      "constant": false,
      "inputs": [
        {
          "name": "_amount",
          "type": "uint256"
        }
      ],
      "name": "sell",
      "outputs": [
        {
          "name": "",
          "type": "bool"
        }
      ],
      "payable": false,
      "stateMutability": "nonpayable",
      "type": "function"
    }
  ],
  "bytecode": "0x608060405234801561001057600080fd5b5033600160006101000a81548173ffffffffffffffffffffffffffffffffffffffff021916908373ffffffffffffffffffffffffffffffffffffffff160217905550610536806100616000396000f3fe6080604052600436106100295760003560e01c8063a6f2ae3a1461002e578063e4849b3214610050575b600080fd5b6100366100a3565b604051808215151515815260200191505060405180910390f35b34801561005c57600080fd5b506100896004803603602081101561007357600080fd5b81019080803590602001909291905050506101b8565b604051808215151515815260200191505060405180910390f35b60008034141561011b576040517f08c379a00000000000000000000000000000000000000000000000000000000081526004018080602001828103825260208152602001807f4d7573742073656e6420736f6d652045544820746f2062757920746f6b656e7381525060200191505060405180910390fd5b61012f60643461035390919063ffffffff16565b6000803373ffffffffffffffffffffffffffffffffffffffff1673ffffffffffffffffffffffffffffffffffffffff16815260200190815260200160002054016000803373ffffffffffffffffffffffffffffffffffffffff1673ffffffffffffffffffffffffffffffffffffffff168152602001908152602001600020819055506001905090565b6000816000803373ffffffffffffffffffffffffffffffffffffffff1673ffffffffffffffffffffffffffffffffffffffff168152602001908152602001600020541161026d576040517f08c379a00000000000000000000000000000000000000000000000000000000081526004018080602001828103825260128152602001807f696e73756666696369656e742066756e6473000000000000000000000000000081525060200191505060405180910390fd5b816000803373ffffffffffffffffffffffffffffffffffffffff1673ffffffffffffffffffffffffffffffffffffffff16815260200190815260200160002054036000803373ffffffffffffffffffffffffffffffffffffffff1673ffffffffffffffffffffffffffffffffffffffff168152602001908152602001600020819055503373ffffffffffffffffffffffffffffffffffffffff166108fc61031e6064856103d990919063ffffffff16565b9081150290604051600060405180830381858888f19350505050158015610349573d6000803e3d6000fd5b5060019050919050565b60008083141561036657600090506103d3565b600082840290508284828161037757fe5b04146103ce576040517f08c379a00000000000000000000000000000000000000000000000000000000081526004018080602001828103825260218152602001806104ea6021913960400191505060405180910390fd5b809150505b92915050565b600061041b83836040518060400160405280601a81526020017f536166654d6174683a206469766973696f6e206279207a65726f000000000000815250610423565b905092915050565b600080831182906104cf576040517f08c379a00000000000000000000000000000000000000000000000000000000081526004018080602001828103825283818151815260200191508051906020019080838360005b83811015610494578082015181840152602081019050610479565b50505050905090810190601f1680156104c15780820380516001836020036101000a031916815260200191505b509250505060405180910390fd5b5060008385816104db57fe5b04905080915050939250505056fe536166654d6174683a206d756c7469706c69636174696f6e206f766572666c6f77a165627a7a72305820f1af4bd7b46f1c66f44e7d6490db46575d9b9af4bd190a33b2944dc96c20bfae0029",
  "source": "/** \nTHIS IS NOT A TOKEN STANDARD\n*/\n\npragma solidity ^0.5.0;\n\nimport \"@openzeppelin/contracts/math/SafeMath.sol\";\n\ncontract SimpleBankToken{\n    mapping(address => uint256) private balances;\n    address private owner;\n\n    using SafeMath for uint256;\n\n    constructor() public{\n        owner = msg.sender;\n    }\n\n    function buy() external payable returns(bool){\n        //Ensure that the user sent with ETH to buy tokens\n        require(msg.value!=0, \"Must send some ETH to buy tokens\");\n\n        //Here we give the user 100 times what they deposit\n        balances[msg.sender] = balances[msg.sender] + msg.value.mul(100);\n\n        return true;\n    }\n\n    function sell(uint256 _amount) external returns(bool){\n        //Check that the user has enough funds to withdraw the amount\n        require(balances[msg.sender] > _amount, \"insufficient funds\");\n        //we subtract the amount from their balance\n        balances[msg.sender] = balances[msg.sender] - _amount;\n\n        msg.sender.transfer(_amount.div(100));\n\n        return true;\n    }\n}",
  "sourcePath": "/home/allan/projects/ABDP/ABDP-Cohort2-Code-Examples/Tokens/ASimpleToken/contracts/SimpleBankToken.sol",
  "compiler": {
    "name": "solc",
    "version": "0.5.8+commit.23d335f2.Emscripten.clang"
  },
  "schemaVersion": "3.0.11",
  "updatedAt": "2019-11-29T10:15:05.505Z",
  "devdoc": {
    "methods": {}
  },
  "userdoc": {
    "methods": {}
  }
}