{
  "contractName": "SimpleLendingBank",
  "abi": [
    {
      "constant": true,
      "inputs": [
        {
          "name": "",
          "type": "address"
        }
      ],
      "name": "enrolled",
      "outputs": [
        {
          "name": "",
          "type": "bool"
        }
      ],
      "payable": false,
      "stateMutability": "view",
      "type": "function"
    },
    {
      "constant": true,
      "inputs": [],
      "name": "getBalance",
      "outputs": [
        {
          "name": "",
          "type": "uint256"
        }
      ],
      "payable": false,
      "stateMutability": "view",
      "type": "function"
    },
    {
      "constant": true,
      "inputs": [
        {
          "name": "",
          "type": "address"
        }
      ],
      "name": "debts",
      "outputs": [
        {
          "name": "lendingBlock",
          "type": "uint256"
        },
        {
          "name": "amount",
          "type": "uint256"
        }
      ],
      "payable": false,
      "stateMutability": "view",
      "type": "function"
    },
    {
      "constant": true,
      "inputs": [],
      "name": "owner",
      "outputs": [
        {
          "name": "",
          "type": "address"
        }
      ],
      "payable": false,
      "stateMutability": "view",
      "type": "function"
    },
    {
      "constant": false,
      "inputs": [],
      "name": "enroll",
      "outputs": [
        {
          "name": "",
          "type": "bool"
        }
      ],
      "payable": false,
      "stateMutability": "nonpayable",
      "type": "function"
    },
    {
      "inputs": [
        {
          "name": "_lendingBlockCount",
          "type": "uint256"
        }
      ],
      "payable": false,
      "stateMutability": "nonpayable",
      "type": "constructor"
    },
    {
      "payable": true,
      "stateMutability": "payable",
      "type": "fallback"
    },
    {
      "anonymous": false,
      "inputs": [
        {
          "indexed": false,
          "name": "amount",
          "type": "uint256"
        },
        {
          "indexed": false,
          "name": "newLendableBalance",
          "type": "uint256"
        }
      ],
      "name": "LogLoanFundsAdded",
      "type": "event"
    },
    {
      "anonymous": false,
      "inputs": [
        {
          "indexed": true,
          "name": "accountAddress",
          "type": "address"
        },
        {
          "indexed": false,
          "name": "amount",
          "type": "uint256"
        },
        {
          "indexed": false,
          "name": "blockNumber",
          "type": "uint256"
        },
        {
          "indexed": false,
          "name": "newBalance",
          "type": "uint256"
        }
      ],
      "name": "LogLoanMade",
      "type": "event"
    },
    {
      "anonymous": false,
      "inputs": [
        {
          "indexed": true,
          "name": "accountAddress",
          "type": "address"
        },
        {
          "indexed": false,
          "name": "amount",
          "type": "uint256"
        },
        {
          "indexed": false,
          "name": "newDebtAmount",
          "type": "uint256"
        }
      ],
      "name": "LogRepayment",
      "type": "event"
    },
    {
      "anonymous": false,
      "inputs": [
        {
          "indexed": true,
          "name": "accountAddress",
          "type": "address"
        }
      ],
      "name": "LogEnrolled",
      "type": "event"
    },
    {
      "anonymous": false,
      "inputs": [
        {
          "indexed": true,
          "name": "accountAddress",
          "type": "address"
        },
        {
          "indexed": false,
          "name": "amount",
          "type": "uint256"
        }
      ],
      "name": "LogDepositMade",
      "type": "event"
    },
    {
      "anonymous": false,
      "inputs": [
        {
          "indexed": true,
          "name": "accountAddress",
          "type": "address"
        },
        {
          "indexed": false,
          "name": "withdrawAmount",
          "type": "uint256"
        },
        {
          "indexed": false,
          "name": "newBalance",
          "type": "uint256"
        }
      ],
      "name": "LogWithdrawal",
      "type": "event"
    },
    {
      "constant": false,
      "inputs": [],
      "name": "addLendableFunds",
      "outputs": [
        {
          "name": "",
          "type": "uint256"
        }
      ],
      "payable": true,
      "stateMutability": "payable",
      "type": "function"
    },
    {
      "constant": true,
      "inputs": [],
      "name": "getLendableAmount",
      "outputs": [
        {
          "name": "",
          "type": "uint256"
        }
      ],
      "payable": false,
      "stateMutability": "view",
      "type": "function"
    },
    {
      "constant": true,
      "inputs": [],
      "name": "getDebtAmount",
      "outputs": [
        {
          "name": "",
          "type": "uint256"
        }
      ],
      "payable": false,
      "stateMutability": "view",
      "type": "function"
    },
    {
      "constant": false,
      "inputs": [
        {
          "name": "borrowAmount",
          "type": "uint256"
        }
      ],
      "name": "borrow",
      "outputs": [
        {
          "name": "",
          "type": "uint256"
        }
      ],
      "payable": false,
      "stateMutability": "nonpayable",
      "type": "function"
    },
    {
      "constant": false,
      "inputs": [],
      "name": "deposit",
      "outputs": [
        {
          "name": "",
          "type": "uint256"
        }
      ],
      "payable": true,
      "stateMutability": "payable",
      "type": "function"
    },
    {
      "constant": false,
      "inputs": [
        {
          "name": "withdrawAmount",
          "type": "uint256"
        }
      ],
      "name": "withdraw",
      "outputs": [
        {
          "name": "",
          "type": "uint256"
        }
      ],
      "payable": false,
      "stateMutability": "nonpayable",
      "type": "function"
    }
  ],
  "bytecode": "0x608060405234801561001057600080fd5b5060405160208061165e8339810180604052602081101561003057600080fd5b810190808051906020019092919050505033600260006101000a81548173ffffffffffffffffffffffffffffffffffffffff021916908373ffffffffffffffffffffffffffffffffffffffff1602179055506001600260146101000a81548160ff021916908360028111156100a157fe5b0217905550600a6003600001819055506000600360010160006101000a81548173ffffffffffffffffffffffffffffffffffffffff021916908373ffffffffffffffffffffffffffffffffffffffff16021790555080600681905550506115518061010d6000396000f3fe60806040526004361061009c5760003560e01c80636d01875d116100645780636d01875d1461020e5780638da5cb5b14610239578063c5ebeaec14610290578063d0e30db0146102df578063de5f20f1146102fd578063e65f2a7e146103285761009c565b80630f4e1a57146100a157806310eb0e0e146100bf57806312065fe0146101285780632e1a7d4d146101535780632ecd4e7d146101a2575b600080fd5b6100a9610357565b6040518082815260200191505060405180910390f35b3480156100cb57600080fd5b5061010e600480360360208110156100e257600080fd5b81019080803573ffffffffffffffffffffffffffffffffffffffff169060200190929190505050610480565b604051808215151515815260200191505060405180910390f35b34801561013457600080fd5b5061013d6104a0565b6040518082815260200191505060405180910390f35b34801561015f57600080fd5b5061018c6004803603602081101561017657600080fd5b81019080803590602001909291905050506104e6565b6040518082815260200191505060405180910390f35b3480156101ae57600080fd5b506101f1600480360360208110156101c557600080fd5b81019080803573ffffffffffffffffffffffffffffffffffffffff1690602001909291905050506105ff565b604051808381526020018281526020019250505060405180910390f35b34801561021a57600080fd5b50610223610623565b6040518082815260200191505060405180910390f35b34801561024557600080fd5b5061024e61066d565b604051808273ffffffffffffffffffffffffffffffffffffffff1673ffffffffffffffffffffffffffffffffffffffff16815260200191505060405180910390f35b34801561029c57600080fd5b506102c9600480360360208110156102b357600080fd5b8101908080359060200190929190505050610693565b6040518082815260200191505060405180910390f35b6102e7610a90565b6040518082815260200191505060405180910390f35b34801561030957600080fd5b50610312610f12565b6040518082815260200191505060405180910390f35b34801561033457600080fd5b5061033d610f1c565b604051808215151515815260200191505060405180910390f35b6000600260009054906101000a900473ffffffffffffffffffffffffffffffffffffffff1673ffffffffffffffffffffffffffffffffffffffff163373ffffffffffffffffffffffffffffffffffffffff161461041c576040517f08c379a00000000000000000000000000000000000000000000000000000000081526004018080602001828103825260108152602001807f556e6174686f726973656420757365720000000000000000000000000000000081525060200191505060405180910390fd5b61043134600554610fbb90919063ffffffff16565b6005819055507fdeffa9da839f9e188a909a78e5bc9cba21953059a8218c331a10fc25f3b078fd34600554604051808381526020018281526020019250505060405180910390a1600554905090565b60016020528060005260406000206000915054906101000a900460ff1681565b60008060003373ffffffffffffffffffffffffffffffffffffffff1673ffffffffffffffffffffffffffffffffffffffff16815260200190815260200160002054905090565b600080600760003373ffffffffffffffffffffffffffffffffffffffff1673ffffffffffffffffffffffffffffffffffffffff16815260200190815260200160002060010154148061057d575043600654600760003373ffffffffffffffffffffffffffffffffffffffff1673ffffffffffffffffffffffffffffffffffffffff1681526020019081526020016000206000015401115b6105ef576040517f08c379a000000000000000000000000000000000000000000000000000000000815260040180806020018281038252600c8152602001807f4f7665726475652064656274000000000000000000000000000000000000000081525060200191505060405180910390fd5b6105f882611043565b9050919050565b60076020528060005260406000206000915090508060000154908060010154905082565b6000600760003373ffffffffffffffffffffffffffffffffffffffff1673ffffffffffffffffffffffffffffffffffffffff16815260200190815260200160002060010154905090565b600260009054906101000a900473ffffffffffffffffffffffffffffffffffffffff1681565b600060011515600160003373ffffffffffffffffffffffffffffffffffffffff1673ffffffffffffffffffffffffffffffffffffffff16815260200190815260200160002060009054906101000a900460ff1615151461075b576040517f08c379a00000000000000000000000000000000000000000000000000000000081526004018080602001828103825260118152602001807f55736572206e6f7420656e726f6c6c656400000000000000000000000000000081525060200191505060405180910390fd5b818060055410156107d4576040517f08c379a000000000000000000000000000000000000000000000000000000000815260040180806020018281038252601b8152602001807f42616e6b2068617320696e73756666696369656e742066756e6473000000000081525060200191505060405180910390fd5b6000600760003373ffffffffffffffffffffffffffffffffffffffff1673ffffffffffffffffffffffffffffffffffffffff168152602001908152602001600020600101541461088c576040517f08c379a00000000000000000000000000000000000000000000000000000000081526004018080602001828103825260178152602001807f5573657220616c7265616479206861732061206465627400000000000000000081525060200191505060405180910390fd5b43600760003373ffffffffffffffffffffffffffffffffffffffff1673ffffffffffffffffffffffffffffffffffffffff1681526020019081526020016000206000018190555082600760003373ffffffffffffffffffffffffffffffffffffffff1673ffffffffffffffffffffffffffffffffffffffff1681526020019081526020016000206001018190555061096b836000803373ffffffffffffffffffffffffffffffffffffffff1673ffffffffffffffffffffffffffffffffffffffff16815260200190815260200160002054610fbb90919063ffffffff16565b6000803373ffffffffffffffffffffffffffffffffffffffff1673ffffffffffffffffffffffffffffffffffffffff168152602001908152602001600020819055503373ffffffffffffffffffffffffffffffffffffffff167fdbd6fe9645650b1a5c2fb621aacba01f1e1167765215839526d4b5ae97f38fe384436000803373ffffffffffffffffffffffffffffffffffffffff1673ffffffffffffffffffffffffffffffffffffffff1681526020019081526020016000205460405180848152602001838152602001828152602001935050505060405180910390a26000803373ffffffffffffffffffffffffffffffffffffffff1673ffffffffffffffffffffffffffffffffffffffff16815260200190815260200160002054915050919050565b600060011515600160003373ffffffffffffffffffffffffffffffffffffffff1673ffffffffffffffffffffffffffffffffffffffff16815260200190815260200160002060009054906101000a900460ff16151514610b58576040517f08c379a00000000000000000000000000000000000000000000000000000000081526004018080602001828103825260118152602001807f55736572206e6f7420656e726f6c6c656400000000000000000000000000000081525060200191505060405180910390fd5b6000600760003373ffffffffffffffffffffffffffffffffffffffff1673ffffffffffffffffffffffffffffffffffffffff16815260200190815260200160002060010154118015610bf0575043600654600760003373ffffffffffffffffffffffffffffffffffffffff1673ffffffffffffffffffffffffffffffffffffffff168152602001908152602001600020600001540111155b15610eff576000349050600760003373ffffffffffffffffffffffffffffffffffffffff1673ffffffffffffffffffffffffffffffffffffffff16815260200190815260200160002060010154341115610c8c57600760003373ffffffffffffffffffffffffffffffffffffffff1673ffffffffffffffffffffffffffffffffffffffff16815260200190815260200160002060010154340390505b610ce181600760003373ffffffffffffffffffffffffffffffffffffffff1673ffffffffffffffffffffffffffffffffffffffff168152602001908152602001600020600101546112af90919063ffffffff16565b600760003373ffffffffffffffffffffffffffffffffffffffff1673ffffffffffffffffffffffffffffffffffffffff168152602001908152602001600020600101819055503373ffffffffffffffffffffffffffffffffffffffff167f32258024bae914792789a3d7827f323f7165a3b63b1fdcafb4f7c29fd844003782600760003373ffffffffffffffffffffffffffffffffffffffff1673ffffffffffffffffffffffffffffffffffffffff16815260200190815260200160002060010154604051808381526020018281526020019250505060405180910390a2600081340390506000811115610ef857610e20816000803373ffffffffffffffffffffffffffffffffffffffff1673ffffffffffffffffffffffffffffffffffffffff16815260200190815260200160002054610fbb90919063ffffffff16565b6000803373ffffffffffffffffffffffffffffffffffffffff1673ffffffffffffffffffffffffffffffffffffffff168152602001908152602001600020819055503373ffffffffffffffffffffffffffffffffffffffff167fa8126f7572bb1fdeae5b5aa9ec126438b91f658a07873f009d041ae690f3a193826040518082815260200191505060405180910390a26000803373ffffffffffffffffffffffffffffffffffffffff1673ffffffffffffffffffffffffffffffffffffffff1681526020019081526020016000205492505050610f0f565b5050610f0e565b610f07611338565b9050610f0f565b5b90565b6000600554905090565b600060018060003373ffffffffffffffffffffffffffffffffffffffff1673ffffffffffffffffffffffffffffffffffffffff16815260200190815260200160002060006101000a81548160ff0219169083151502179055503373ffffffffffffffffffffffffffffffffffffffff167f990c442e6adb818b8fa7db3cf1023decd07f7b66e5306928c7ed527d974192bb60405160405180910390a290565b600080828401905083811015611039576040517f08c379a000000000000000000000000000000000000000000000000000000000815260040180806020018281038252601b8152602001807f536166654d6174683a206164646974696f6e206f766572666c6f77000000000081525060200191505060405180910390fd5b8091505092915050565b600081806000803373ffffffffffffffffffffffffffffffffffffffff1673ffffffffffffffffffffffffffffffffffffffff1681526020019081526020016000205410156110fa576040517f08c379a000000000000000000000000000000000000000000000000000000000815260040180806020018281038252601b8152602001807f557365722068617320696e73756666696369656e742066756e6473000000000081525060200191505060405180910390fd5b61114b836000803373ffffffffffffffffffffffffffffffffffffffff1673ffffffffffffffffffffffffffffffffffffffff168152602001908152602001600020546112af90919063ffffffff16565b6000803373ffffffffffffffffffffffffffffffffffffffff1673ffffffffffffffffffffffffffffffffffffffff168152602001908152602001600020819055503373ffffffffffffffffffffffffffffffffffffffff166108fc849081150290604051600060405180830381858888f193505050501580156111d3573d6000803e3d6000fd5b503373ffffffffffffffffffffffffffffffffffffffff167ff9226daf630542048a23086c6af599511aac100ec8f532793cc9697d061bed7e846000803373ffffffffffffffffffffffffffffffffffffffff1673ffffffffffffffffffffffffffffffffffffffff16815260200190815260200160002054604051808381526020018281526020019250505060405180910390a26000803373ffffffffffffffffffffffffffffffffffffffff1673ffffffffffffffffffffffffffffffffffffffff16815260200190815260200160002054915050919050565b600082821115611327576040517f08c379a000000000000000000000000000000000000000000000000000000000815260040180806020018281038252601e8152602001807f536166654d6174683a207375627472616374696f6e206f766572666c6f77000081525060200191505060405180910390fd5b600082840390508091505092915050565b600060011515600160003373ffffffffffffffffffffffffffffffffffffffff1673ffffffffffffffffffffffffffffffffffffffff16815260200190815260200160002060009054906101000a900460ff16151514611400576040517f08c379a00000000000000000000000000000000000000000000000000000000081526004018080602001828103825260118152602001807f55736572206e6f7420656e726f6c6c656400000000000000000000000000000081525060200191505060405180910390fd5b611451346000803373ffffffffffffffffffffffffffffffffffffffff1673ffffffffffffffffffffffffffffffffffffffff16815260200190815260200160002054610fbb90919063ffffffff16565b6000803373ffffffffffffffffffffffffffffffffffffffff1673ffffffffffffffffffffffffffffffffffffffff168152602001908152602001600020819055503373ffffffffffffffffffffffffffffffffffffffff167fa8126f7572bb1fdeae5b5aa9ec126438b91f658a07873f009d041ae690f3a193346040518082815260200191505060405180910390a26000803373ffffffffffffffffffffffffffffffffffffffff1673ffffffffffffffffffffffffffffffffffffffff1681526020019081526020016000205490509056fea165627a7a72305820aba4f1a6b1cba38ce13d29590bc5f6d2a3a1ec35116f2fe2904f913e73ba0d880029",
  "source": "pragma solidity ^0.5.0;\n\nimport './LendingBank.sol';\nimport './SimpleBank.sol';\n\ncontract SimpleLendingBank is LendingBank, SimpleBank{\n\n  //\n  // State variables\n  //\n  uint private lendableBalance;\n\n  uint private lendingBlockCount;\n\n  mapping (address => DebtStruct) public debts;\n\n  struct DebtStruct {\n    uint lendingBlock;\n    uint amount;\n  }\n\n  //\n  // events\n  //\n\n  event LogLoanFundsAdded(uint amount, uint newLendableBalance);\n\n  event LogLoanMade(address indexed accountAddress, uint amount, uint blockNumber, uint newBalance);\n\n  event LogRepayment(address indexed accountAddress, uint amount, uint newDebtAmount);\n\n  //\n  // modifiers\n  //\n  modifier onlyOwner(){\n    require(msg.sender == owner, \"Unathorised user\");\n    _;\n  }\n\n  modifier canBorrow(uint borrowAmount){\n    require(lendableBalance >= borrowAmount, \"Bank has insufficient funds\");\n    require(debts[msg.sender].amount==0, \"User already has a debt\");\n    _;\n  }\n\n  modifier noOverdueDebt(){\n    require(debts[msg.sender].amount==0 || (debts[msg.sender].lendingBlock+lendingBlockCount) > block.number, \"Overdue debt\");\n    _;\n  }\n\n  constructor(uint _lendingBlockCount) public {\n      lendingBlockCount = _lendingBlockCount;\n  }\n\n  function addLendableFunds() public payable onlyOwner() returns (uint) {\n    lendableBalance = lendableBalance.add(msg.value);\n    emit LogLoanFundsAdded(msg.value,lendableBalance);\n    return lendableBalance;\n  }\n\n  function getLendableAmount() public view returns (uint) {\n    return lendableBalance;\n  }\n\n  function getDebtAmount() public view returns (uint) {\n    return debts[msg.sender].amount;\n  }\n\n  function borrow(uint borrowAmount) public isEnrolled() canBorrow(borrowAmount) returns (uint) {\n\n    debts[msg.sender].lendingBlock = block.number;\n    debts[msg.sender].amount = borrowAmount;\n    balances[msg.sender] = balances[msg.sender].add(borrowAmount);\n    emit LogLoanMade(msg.sender, borrowAmount,block.number, balances[msg.sender]);\n    return balances[msg.sender];\n  }\n\n  function deposit() public payable isEnrolled() returns (uint) {\n      /* Add the amount to the user's balance, call the event associated with a deposit,\n        then return the balance of the user */\n      if(debts[msg.sender].amount > 0 && debts[msg.sender].lendingBlock+lendingBlockCount <= block.number)\n      {\n        uint repaymentAmount = msg.value;\n        if(msg.value > debts[msg.sender].amount)\n        {\n          repaymentAmount = msg.value - debts[msg.sender].amount;\n        }\n        debts[msg.sender].amount = debts[msg.sender].amount.sub(repaymentAmount);\n        emit LogRepayment(msg.sender,repaymentAmount,debts[msg.sender].amount);\n        uint depositAmount = msg.value - repaymentAmount;\n        if(depositAmount > 0)\n        {\n          balances[msg.sender] = balances[msg.sender].add(depositAmount);\n          emit LogDepositMade(msg.sender, depositAmount);\n          return balances[msg.sender];\n        }\n      }\n      else\n      {\n        return super.deposit();\n      }\n  }\n\n  function withdraw(uint withdrawAmount) public noOverdueDebt() returns (uint) {\n    return super.withdraw(withdrawAmount);\n  }\n}\n",
  "sourcePath": "/home/ali/EthProjects/ABDP-Cohort2-Code-Examples/Interfaces-Inheritance&AbstractContracts/Interface/Bank/contracts/SimpleLendingBank.sol",
  "compiler": {
    "name": "solc",
    "version": "0.5.8+commit.23d335f2.Emscripten.clang"
  },
  "schemaVersion": "3.0.16",
  "updatedAt": "2019-11-01T22:04:06.153Z",
  "devdoc": {
    "methods": {
      "enroll()": {
        "return": "The users enrolled status"
      },
      "getBalance()": {
        "return": "The balance of the user"
      }
    }
  },
  "userdoc": {
    "methods": {
      "enroll()": {
        "notice": "Enroll a customer with the bank"
      },
      "getBalance()": {
        "notice": "Get balance"
      }
    }
  }
}