{
  "contractName": "Shop",
  "abi": [
    {
      "constant": true,
      "inputs": [
        {
          "name": "",
          "type": "uint256"
        }
      ],
      "name": "items",
      "outputs": [
        {
          "name": "name",
          "type": "string"
        },
        {
          "name": "sku",
          "type": "uint256"
        },
        {
          "name": "price",
          "type": "uint256"
        },
        {
          "name": "seller",
          "type": "address"
        },
        {
          "name": "buyer",
          "type": "address"
        }
      ],
      "payable": false,
      "stateMutability": "view",
      "type": "function",
      "signature": "0xbfb231d2"
    },
    {
      "inputs": [],
      "payable": false,
      "stateMutability": "nonpayable",
      "type": "constructor",
      "signature": "constructor"
    }
  ],
  "bytecode": "0x608060405234801561001057600080fd5b50336000806101000a81548173ffffffffffffffffffffffffffffffffffffffff021916908373ffffffffffffffffffffffffffffffffffffffff16021790555060006001819055506102a8806100686000396000f3fe608060405260043610610041576000357c0100000000000000000000000000000000000000000000000000000000900463ffffffff168063bfb231d214610046575b600080fd5b34801561005257600080fd5b5061007f6004803603602081101561006957600080fd5b810190808035906020019092919050505061016e565b60405180806020018681526020018581526020018473ffffffffffffffffffffffffffffffffffffffff1673ffffffffffffffffffffffffffffffffffffffff1681526020018373ffffffffffffffffffffffffffffffffffffffff1673ffffffffffffffffffffffffffffffffffffffff168152602001828103825287818151815260200191508051906020019080838360005b8381101561012f578082015181840152602081019050610114565b50505050905090810190601f16801561015c5780820380516001836020036101000a031916815260200191505b50965050505050505060405180910390f35b6002602052806000526040600020600091509050806000018054600181600116156101000203166002900480601f01602080910402602001604051908101604052809291908181526020018280546001816001161561010002031660029004801561021a5780601f106101ef5761010080835404028352916020019161021a565b820191906000526020600020905b8154815290600101906020018083116101fd57829003601f168201915b5050505050908060010154908060020154908060030160009054906101000a900473ffffffffffffffffffffffffffffffffffffffff16908060040160009054906101000a900473ffffffffffffffffffffffffffffffffffffffff1690508556fea165627a7a723058205678a347051ce74ca52e587ef7f3c889497d8290fa8613eff297b2d51610f7c40029",
  "source": "pragma solidity >=0.4.21 <0.6.0;\n\nimport \"./SafeMath.sol\";\n\ncontract Shop {\n    using SafeMath for uint256;\n\n    //state variables\n    address owner;\n    uint private itemCount;\n\n    struct Item {\n        string name; \n        uint sku;\n        uint256 price; \n        address payable seller;\n        address payable buyer;\n    }\n\n    mapping(uint => Item) public items;\n\n    //events\n\n    //modifiers\n\n    constructor() public {\n        owner = msg.sender;\n        itemCount = 0;\n    }\n}",
  "sourcePath": "/Users/allan-only/projects/ABDP/ABDP-Cohort2-Code-Examples/Libraries/SafeMath/contracts/Shop.sol",
  "compiler": {
    "name": "solc",
    "version": "0.5.0+commit.1d4f565a.Emscripten.clang"
  },
  "schemaVersion": "3.0.1",
  "updatedAt": "2019-10-16T09:27:42.425Z",
  "devdoc": {
    "methods": {}
  },
  "userdoc": {
    "methods": {}
  }
}